{
  "_format": "hh3-artifact-1",
  "contractName": "CredentialRegistry",
  "sourceName": "contracts/CredentialRegistry.sol",
  "abi": [
    {
      "inputs": [
        {
          "internalType": "address",
          "name": "admin",
          "type": "address"
        }
      ],
      "stateMutability": "nonpayable",
      "type": "constructor"
    },
    {
      "inputs": [],
      "name": "AccessControlBadConfirmation",
      "type": "error"
    },
    {
      "inputs": [
        {
          "internalType": "address",
          "name": "account",
          "type": "address"
        },
        {
          "internalType": "bytes32",
          "name": "neededRole",
          "type": "bytes32"
        }
      ],
      "name": "AccessControlUnauthorizedAccount",
      "type": "error"
    },
    {
      "inputs": [],
      "name": "ECDSAInvalidSignature",
      "type": "error"
    },
    {
      "inputs": [
        {
          "internalType": "uint256",
          "name": "length",
          "type": "uint256"
        }
      ],
      "name": "ECDSAInvalidSignatureLength",
      "type": "error"
    },
    {
      "inputs": [
        {
          "internalType": "bytes32",
          "name": "s",
          "type": "bytes32"
        }
      ],
      "name": "ECDSAInvalidSignatureS",
      "type": "error"
    },
    {
      "inputs": [],
      "name": "InvalidShortString",
      "type": "error"
    },
    {
      "inputs": [
        {
          "internalType": "string",
          "name": "str",
          "type": "string"
        }
      ],
      "name": "StringTooLong",
      "type": "error"
    },
    {
      "anonymous": false,
      "inputs": [],
      "name": "EIP712DomainChanged",
      "type": "event"
    },
    {
      "anonymous": false,
      "inputs": [
        {
          "indexed": true,
          "internalType": "bytes32",
          "name": "docHash",
          "type": "bytes32"
        },
        {
          "indexed": true,
          "internalType": "address",
          "name": "issuer",
          "type": "address"
        },
        {
          "indexed": false,
          "internalType": "uint64",
          "name": "issuedAt",
          "type": "uint64"
        }
      ],
      "name": "Issued",
      "type": "event"
    },
    {
      "anonymous": false,
      "inputs": [
        {
          "indexed": true,
          "internalType": "bytes32",
          "name": "docHash",
          "type": "bytes32"
        },
        {
          "indexed": true,
          "internalType": "address",
          "name": "issuer",
          "type": "address"
        },
        {
          "indexed": false,
          "internalType": "uint64",
          "name": "revokedAt",
          "type": "uint64"
        }
      ],
      "name": "Revoked",
      "type": "event"
    },
    {
      "anonymous": false,
      "inputs": [
        {
          "indexed": true,
          "internalType": "bytes32",
          "name": "role",
          "type": "bytes32"
        },
        {
          "indexed": true,
          "internalType": "bytes32",
          "name": "previousAdminRole",
          "type": "bytes32"
        },
        {
          "indexed": true,
          "internalType": "bytes32",
          "name": "newAdminRole",
          "type": "bytes32"
        }
      ],
      "name": "RoleAdminChanged",
      "type": "event"
    },
    {
      "anonymous": false,
      "inputs": [
        {
          "indexed": true,
          "internalType": "bytes32",
          "name": "role",
          "type": "bytes32"
        },
        {
          "indexed": true,
          "internalType": "address",
          "name": "account",
          "type": "address"
        },
        {
          "indexed": true,
          "internalType": "address",
          "name": "sender",
          "type": "address"
        }
      ],
      "name": "RoleGranted",
      "type": "event"
    },
    {
      "anonymous": false,
      "inputs": [
        {
          "indexed": true,
          "internalType": "bytes32",
          "name": "role",
          "type": "bytes32"
        },
        {
          "indexed": true,
          "internalType": "address",
          "name": "account",
          "type": "address"
        },
        {
          "indexed": true,
          "internalType": "address",
          "name": "sender",
          "type": "address"
        }
      ],
      "name": "RoleRevoked",
      "type": "event"
    },
    {
      "inputs": [],
      "name": "DEFAULT_ADMIN_ROLE",
      "outputs": [
        {
          "internalType": "bytes32",
          "name": "",
          "type": "bytes32"
        }
      ],
      "stateMutability": "view",
      "type": "function"
    },
    {
      "inputs": [],
      "name": "ISSUER_ROLE",
      "outputs": [
        {
          "internalType": "bytes32",
          "name": "",
          "type": "bytes32"
        }
      ],
      "stateMutability": "view",
      "type": "function"
    },
    {
      "inputs": [
        {
          "internalType": "address",
          "name": "account",
          "type": "address"
        }
      ],
      "name": "addIssuer",
      "outputs": [],
      "stateMutability": "nonpayable",
      "type": "function"
    },
    {
      "inputs": [],
      "name": "eip712Domain",
      "outputs": [
        {
          "internalType": "bytes1",
          "name": "fields",
          "type": "bytes1"
        },
        {
          "internalType": "string",
          "name": "name",
          "type": "string"
        },
        {
          "internalType": "string",
          "name": "version",
          "type": "string"
        },
        {
          "internalType": "uint256",
          "name": "chainId",
          "type": "uint256"
        },
        {
          "internalType": "address",
          "name": "verifyingContract",
          "type": "address"
        },
        {
          "internalType": "bytes32",
          "name": "salt",
          "type": "bytes32"
        },
        {
          "internalType": "uint256[]",
          "name": "extensions",
          "type": "uint256[]"
        }
      ],
      "stateMutability": "view",
      "type": "function"
    },
    {
      "inputs": [
        {
          "internalType": "bytes32",
          "name": "role",
          "type": "bytes32"
        }
      ],
      "name": "getRoleAdmin",
      "outputs": [
        {
          "internalType": "bytes32",
          "name": "",
          "type": "bytes32"
        }
      ],
      "stateMutability": "view",
      "type": "function"
    },
    {
      "inputs": [
        {
          "internalType": "bytes32",
          "name": "role",
          "type": "bytes32"
        },
        {
          "internalType": "address",
          "name": "account",
          "type": "address"
        }
      ],
      "name": "grantRole",
      "outputs": [],
      "stateMutability": "nonpayable",
      "type": "function"
    },
    {
      "inputs": [
        {
          "internalType": "bytes32",
          "name": "role",
          "type": "bytes32"
        },
        {
          "internalType": "address",
          "name": "account",
          "type": "address"
        }
      ],
      "name": "hasRole",
      "outputs": [
        {
          "internalType": "bool",
          "name": "",
          "type": "bool"
        }
      ],
      "stateMutability": "view",
      "type": "function"
    },
    {
      "inputs": [
        {
          "internalType": "bytes32",
          "name": "docHash",
          "type": "bytes32"
        }
      ],
      "name": "issue",
      "outputs": [],
      "stateMutability": "nonpayable",
      "type": "function"
    },
    {
      "inputs": [
        {
          "components": [
            {
              "internalType": "bytes32",
              "name": "docHash",
              "type": "bytes32"
            },
            {
              "internalType": "string",
              "name": "studentName",
              "type": "string"
            },
            {
              "internalType": "string",
              "name": "course",
              "type": "string"
            },
            {
              "internalType": "uint64",
              "name": "issueDate",
              "type": "uint64"
            }
          ],
          "internalType": "struct CredentialRegistry.Credential",
          "name": "credential",
          "type": "tuple"
        },
        {
          "internalType": "uint8",
          "name": "v",
          "type": "uint8"
        },
        {
          "internalType": "bytes32",
          "name": "r",
          "type": "bytes32"
        },
        {
          "internalType": "bytes32",
          "name": "s",
          "type": "bytes32"
        }
      ],
      "name": "issueWithSignature",
      "outputs": [],
      "stateMutability": "nonpayable",
      "type": "function"
    },
    {
      "inputs": [
        {
          "internalType": "bytes32",
          "name": "",
          "type": "bytes32"
        }
      ],
      "name": "records",
      "outputs": [
        {
          "internalType": "uint64",
          "name": "issuedAt",
          "type": "uint64"
        },
        {
          "internalType": "bool",
          "name": "revoked",
          "type": "bool"
        },
        {
          "internalType": "address",
          "name": "issuer",
          "type": "address"
        }
      ],
      "stateMutability": "view",
      "type": "function"
    },
    {
      "inputs": [
        {
          "internalType": "address",
          "name": "account",
          "type": "address"
        }
      ],
      "name": "removeIssuer",
      "outputs": [],
      "stateMutability": "nonpayable",
      "type": "function"
    },
    {
      "inputs": [
        {
          "internalType": "bytes32",
          "name": "role",
          "type": "bytes32"
        },
        {
          "internalType": "address",
          "name": "callerConfirmation",
          "type": "address"
        }
      ],
      "name": "renounceRole",
      "outputs": [],
      "stateMutability": "nonpayable",
      "type": "function"
    },
    {
      "inputs": [
        {
          "internalType": "bytes32",
          "name": "docHash",
          "type": "bytes32"
        }
      ],
      "name": "revoke",
      "outputs": [],
      "stateMutability": "nonpayable",
      "type": "function"
    },
    {
      "inputs": [
        {
          "internalType": "bytes32",
          "name": "role",
          "type": "bytes32"
        },
        {
          "internalType": "address",
          "name": "account",
          "type": "address"
        }
      ],
      "name": "revokeRole",
      "outputs": [],
      "stateMutability": "nonpayable",
      "type": "function"
    },
    {
      "inputs": [
        {
          "internalType": "bytes4",
          "name": "interfaceId",
          "type": "bytes4"
        }
      ],
      "name": "supportsInterface",
      "outputs": [
        {
          "internalType": "bool",
          "name": "",
          "type": "bool"
        }
      ],
      "stateMutability": "view",
      "type": "function"
    },
    {
      "inputs": [
        {
          "internalType": "bytes32",
          "name": "docHash",
          "type": "bytes32"
        }
      ],
      "name": "verify",
      "outputs": [
        {
          "internalType": "bool",
          "name": "issued",
          "type": "bool"
        },
        {
          "internalType": "bool",
          "name": "revoked",
          "type": "bool"
        },
        {
          "internalType": "uint64",
          "name": "issuedAt",
          "type": "uint64"
        },
        {
          "internalType": "address",
          "name": "issuer",
          "type": "address"
        }
      ],
      "stateMutability": "view",
      "type": "function"
    }
  ],
  "bytecode": "0x610160604052348015610010575f5ffd5b5060405161157938038061157983398101604081905261002f91610287565b6040518060400160405280601281526020017143726564656e7469616c526567697374727960701b815250604051806040016040528060018152602001603160f81b81525061008860018361016860201b90919060201c565b61012052610097816002610168565b61014052815160208084019190912060e052815190820120610100524660a05261012360e05161010051604080517f8b73c3c69bb8fe3d512ecc4cf759cc79239f7b179b0ffacaa9a75d522b39400f60208201529081019290925260608201524660808201523060a08201525f9060c00160405160208183030381529060405280519060200120905090565b60805250503060c0526101365f8261019a565b506101617f114e74f6ea3bd819998f78687bfcb11b140da08e9b7d222fa9c1f1ba1f2aa1228261019a565b505061045e565b5f6020835110156101835761017c83610241565b9050610194565b8161018e848261034c565b5060ff90505b92915050565b5f828152602081815260408083206001600160a01b038516845290915281205460ff1661023a575f838152602081815260408083206001600160a01b03861684529091529020805460ff191660011790556101f23390565b6001600160a01b0316826001600160a01b0316847f2f8788117e7eff1d82e926ec794901d17c78024a50270940304540a733656f0d60405160405180910390a4506001610194565b505f610194565b5f5f829050601f81511115610274578260405163305a27a960e01b815260040161026b9190610406565b60405180910390fd5b805161027f8261043b565b179392505050565b5f60208284031215610297575f5ffd5b81516001600160a01b03811681146102ad575f5ffd5b9392505050565b634e487b7160e01b5f52604160045260245ffd5b600181811c908216806102dc57607f821691505b6020821081036102fa57634e487b7160e01b5f52602260045260245ffd5b50919050565b601f82111561034757805f5260205f20601f840160051c810160208510156103255750805b601f840160051c820191505b81811015610344575f8155600101610331565b50505b505050565b81516001600160401b03811115610365576103656102b4565b6103798161037384546102c8565b84610300565b6020601f8211600181146103ab575f83156103945750848201515b5f19600385901b1c1916600184901b178455610344565b5f84815260208120601f198516915b828110156103da57878501518255602094850194600190920191016103ba565b50848210156103f757868401515f19600387901b60f8161c191681555b50505050600190811b01905550565b602081525f82518060208401528060208501604085015e5f604082850101526040601f19601f83011684010191505092915050565b805160208083015191908110156102fa575f1960209190910360031b1b16919050565b60805160a05160c05160e0516101005161012051610140516110ca6104af5f395f6109cb01525f61099901525f610b0301525f610adb01525f610a3601525f610a6001525f610a8a01526110ca5ff3fe608060405234801561000f575f5ffd5b50600436106100fb575f3560e01c80636730e9181161009357806391d148541161006357806391d1485414610310578063a217fddf14610323578063b75c7dc61461032a578063d547741f1461033d575f5ffd5b80636730e9181461022b57806375e366161461023e57806382aefa24146102e157806384b0196e146102f5575f5ffd5b8063248a9ca3116100ce578063248a9ca3146101c25780632f2ff15d146101f257806336568abe1461020557806347bc709314610218575f5ffd5b806301e64725146100ff57806301ffc9a7146101775780630f75e81f1461019a57806320694db0146101af575b5f5ffd5b61014461010d366004610de0565b60036020525f90815260409020546001600160401b03811690600160401b810460ff1690600160481b90046001600160a01b031683565b604080516001600160401b03909416845291151560208401526001600160a01b0316908201526060015b60405180910390f35b61018a610185366004610df7565b610350565b604051901515815260200161016e565b6101ad6101a8366004610de0565b610386565b005b6101ad6101bd366004610e40565b6103ab565b6101e46101d0366004610de0565b5f9081526020819052604090206001015490565b60405190815260200161016e565b6101ad610200366004610e59565b6103d1565b6101ad610213366004610e59565b6103fb565b6101ad610226366004610e40565b61042e565b6101ad610239366004610e83565b61044f565b6102a761024c366004610de0565b5f90815260036020908152604091829020825160608101845290546001600160401b038116808352600160401b820460ff161515938301849052600160481b9091046001600160a01b03169190930181905282151593919291565b60405161016e9493929190931515845291151560208401526001600160401b031660408301526001600160a01b0316606082015260800190565b6101e45f5160206110755f395f51905f5281565b6102fd6105ac565b60405161016e9796959493929190610f14565b61018a61031e366004610e59565b6105ee565b6101e45f81565b6101ad610338366004610de0565b610616565b6101ad61034b366004610e59565b6106e8565b5f6001600160e01b03198216637965db0b60e01b148061038057506301ffc9a760e01b6001600160e01b03198316145b92915050565b5f5160206110755f395f51905f5261039d8161070c565b6103a78233610719565b5050565b5f6103b58161070c565b6103cc5f5160206110755f395f51905f5283610842565b505050565b5f828152602081905260409020600101546103eb8161070c565b6103f58383610842565b50505050565b6001600160a01b03811633146104245760405163334bd91960e11b815260040160405180910390fd5b6103cc82826108d1565b5f6104388161070c565b6103cc5f5160206110755f395f51905f52836108d1565b5f7f02f2a561f6edaad9d79ea0b346f17eff41b3eb9a365f7c538e999267faae555a85356104806020880188610faa565b60405161048e929190610ff3565b60405180910390208780604001906104a69190610faa565b6040516104b4929190610ff3565b6040519081900390206104cd60808a0160608b01611002565b604080516020810196909652850193909352606084019190915260808301526001600160401b031660a082015260c0016040516020818303038152906040528051906020012090505f61051f8261093a565b90505f61052e82878787610966565b90506105475f5160206110755f395f51905f52826105ee565b6105985760405162461bcd60e51b815260206004820152601760248201527f7369676e6572206973206e6f7420616e2069737375657200000000000000000060448201526064015b60405180910390fd5b6105a3873582610719565b50505050505050565b5f6060805f5f5f60606105bd610992565b6105c56109c4565b604080515f80825260208201909252600f60f81b9b939a50919850469750309650945092509050565b5f918252602082815260408084206001600160a01b0393909316845291905290205460ff1690565b5f5160206110755f395f51905f5261062d8161070c565b5f828152600360205260408120546001600160401b0316900361067f5760405162461bcd60e51b815260206004820152600a6024820152691b9bdd081a5cdcdd595960b21b604482015260640161058f565b5f82815260036020908152604091829020805468ff00000000000000001916600160401b1790559051426001600160401b03168152339184917f84bcced462fd006b0ebdf96169a4ba431f719c0b59736037053879c7b457449591015b60405180910390a35050565b5f828152602081905260409020600101546107028161070c565b6103f583836108d1565b61071681336109f1565b50565b5f828152600360205260409020546001600160401b03161561076e5760405162461bcd60e51b815260206004820152600e60248201526d185b1c9958591e481a5cdcdd595960921b604482015260640161058f565b604080516060810182526001600160401b034281811683525f60208085018281526001600160a01b038089168789018181528b86526003909452938890209651875492519351909116600160481b027fffffff0000000000000000000000000000000000000000ffffffffffffffffff931515600160401b0268ffffffffffffffffff199093169190961617171692909217909255915184917fa0e7957c80c9d1b36e9129699de67a4ddc9b76ffdea81e416e06ac8de9071f5b916106dc91906001600160401b0391909116815260200190565b5f61084d83836105ee565b6108ca575f838152602081815260408083206001600160a01b03861684529091529020805460ff191660011790556108823390565b6001600160a01b0316826001600160a01b0316847f2f8788117e7eff1d82e926ec794901d17c78024a50270940304540a733656f0d60405160405180910390a4506001610380565b505f610380565b5f6108dc83836105ee565b156108ca575f838152602081815260408083206001600160a01b0386168085529252808320805460ff1916905551339286917ff6391f5c32d9c69d2a47ea670b442974b53935d1edc7fd64eb21e047a839171b9190a4506001610380565b5f610380610946610a2a565b8360405161190160f01b8152600281019290925260228201526042902090565b5f5f5f5f61097688888888610b53565b9250925092506109868282610c1b565b50909695505050505050565b60606109bf7f00000000000000000000000000000000000000000000000000000000000000006001610cd3565b905090565b60606109bf7f00000000000000000000000000000000000000000000000000000000000000006002610cd3565b6109fb82826105ee565b6103a75760405163e2517d3f60e01b81526001600160a01b03821660048201526024810183905260440161058f565b5f306001600160a01b037f000000000000000000000000000000000000000000000000000000000000000016148015610a8257507f000000000000000000000000000000000000000000000000000000000000000046145b15610aac57507f000000000000000000000000000000000000000000000000000000000000000090565b6109bf604080517f8b73c3c69bb8fe3d512ecc4cf759cc79239f7b179b0ffacaa9a75d522b39400f60208201527f0000000000000000000000000000000000000000000000000000000000000000918101919091527f000000000000000000000000000000000000000000000000000000000000000060608201524660808201523060a08201525f9060c00160405160208183030381529060405280519060200120905090565b5f80807f7fffffffffffffffffffffffffffffff5d576e7357a4501ddfe92f46681b20a0841115610b8c57505f91506003905082610c11565b604080515f808252602082018084528a905260ff891692820192909252606081018790526080810186905260019060a0016020604051602081039080840390855afa158015610bdd573d5f5f3e3d5ffd5b5050604051601f1901519150506001600160a01b038116610c0857505f925060019150829050610c11565b92505f91508190505b9450945094915050565b5f826003811115610c2e57610c2e611028565b03610c37575050565b6001826003811115610c4b57610c4b611028565b03610c695760405163f645eedf60e01b815260040160405180910390fd5b6002826003811115610c7d57610c7d611028565b03610c9e5760405163fce698f760e01b81526004810182905260240161058f565b6003826003811115610cb257610cb2611028565b036103a7576040516335e2f38360e21b81526004810182905260240161058f565b606060ff8314610ced57610ce683610d7c565b9050610380565b818054610cf99061103c565b80601f0160208091040260200160405190810160405280929190818152602001828054610d259061103c565b8015610d705780601f10610d4757610100808354040283529160200191610d70565b820191905f5260205f20905b815481529060010190602001808311610d5357829003601f168201915b50505050509050610380565b60605f610d8883610db9565b6040805160208082528183019092529192505f91906020820181803683375050509182525060208101929092525090565b5f60ff8216601f81111561038057604051632cd44ac360e21b815260040160405180910390fd5b5f60208284031215610df0575f5ffd5b5035919050565b5f60208284031215610e07575f5ffd5b81356001600160e01b031981168114610e1e575f5ffd5b9392505050565b80356001600160a01b0381168114610e3b575f5ffd5b919050565b5f60208284031215610e50575f5ffd5b610e1e82610e25565b5f5f60408385031215610e6a575f5ffd5b82359150610e7a60208401610e25565b90509250929050565b5f5f5f5f60808587031215610e96575f5ffd5b84356001600160401b03811115610eab575f5ffd5b850160808188031215610ebc575f5ffd5b9350602085013560ff81168114610ed1575f5ffd5b93969395505050506040820135916060013590565b5f81518084528060208401602086015e5f602082860101526020601f19601f83011685010191505092915050565b60ff60f81b8816815260e060208201525f610f3260e0830189610ee6565b8281036040840152610f448189610ee6565b606084018890526001600160a01b038716608085015260a0840186905283810360c0850152845180825260208087019350909101905f5b81811015610f99578351835260209384019390920191600101610f7b565b50909b9a5050505050505050505050565b5f5f8335601e19843603018112610fbf575f5ffd5b8301803591506001600160401b03821115610fd8575f5ffd5b602001915036819003821315610fec575f5ffd5b9250929050565b818382375f9101908152919050565b5f60208284031215611012575f5ffd5b81356001600160401b0381168114610e1e575f5ffd5b634e487b7160e01b5f52602160045260245ffd5b600181811c9082168061105057607f821691505b60208210810361106e57634e487b7160e01b5f52602260045260245ffd5b5091905056fe114e74f6ea3bd819998f78687bfcb11b140da08e9b7d222fa9c1f1ba1f2aa122a2646970667358221220b954c54bf82dcb07d0208c2b0a693482f3e444194a68185e48e0ef64e289b57964736f6c634300081c0033",
  "linkReferences": {},
  "deployedLinkReferences": {},
  "immutableReferences": {
    "2598": [
      {
        "length": 32,
        "start": 2698
      }
    ],
    "2600": [
      {
        "length": 32,
        "start": 2656
      }
    ],
    "2602": [
      {
        "length": 32,
        "start": 2614
      }
    ],
    "2604": [
      {
        "length": 32,
        "start": 2779
      }
    ],
    "2606": [
      {
        "length": 32,
        "start": 2819
      }
    ],
    "2609": [
      {
        "length": 32,
        "start": 2457
      }
    ],
    "2612": [
      {
        "length": 32,
        "start": 2507
      }
    ]
  },
  "inputSourceName": "project/contracts/CredentialRegistry.sol",
  "buildInfoId": "solc-0_8_28-c631525fc7db632321b9b3a66baa5d0d984e0fd0"
}